:100000000C942A000C9447000C9447000C94470071
:100010000C9447000C9447000C9447000C94470044
:100020000C9447000C9447000C9447000C94470034
:100030000C9447000C9447000C9447000C94470024
:100040000C9447000C9447000C9447000C94470014
:100050000C94470011241FBECFE5D4E0DEBFCDBF16
:1000600010E0A0E6B0E0E0ECF0E002C005900D92F8
:10007000A036B107D9F710E0A0E6B0E001C01D92AC
:10008000A036B107E1F70E9449000C945E000C9481
:1000900000001ABA8FEF87BB35E021E089B3837087
:1000A000833011F438BBFACF89B390E0837090703D
:1000B000892B11F428BBF2CF18BAF0CFF894FFCFF8
:00000001FF
