:100000000C942A000C9434000C9434000C943400AA
:100010000C9434000C9434000C9434000C94340090
:100020000C9434000C9434000C9434000C94340080
:100030000C9434000C9434000C9434000C94340070
:100040000C9434000C9434000C9434000C94340060
:100050000C94340011241FBECFE5D4E0DEBFCDBF29
:100060000E9436000C944F000C9400008FEF84BB6C
:100070009FE080EF95BB2FE33DE043E0215030400F
:100080004040E1F700C0000085BB2FE33DE043E0C6
:10009000215030404040E1F700C00000EBCFF89421
:0200A000FFCF90
:00000001FF
