S00B00005247422E737265633E
S11300000C942A000C9434000C9434000C943400A6
S11300100C9434000C9434000C9434000C9434008C
S11300200C9434000C9434000C9434000C9434007C
S11300300C9434000C9434000C9434000C9434006C
S11300400C9434000C9434000C9434000C9434005C
S11300500C94340011241FBECFE5D4E0DEBFCDBF25
S11300600E9436000C945A000C9400008FEF81BB60
S113007021E092E084E022BB3FEF49E658E13150B1
S113008040405040E1F700C0000092BB3FEF49E61A
S113009058E1315040405040E1F700C0000082BBBD
S11300A03FEF49E658E1315040405040E1F700C08D
S10B00B00000E1CFF894FFCF3A
S9030000FC
