S00B00005353442E737265632F
S11300000C942A000C9434000C9434000C943400A6
S11300100C9434000C9434000C9434000C9434008C
S11300200C9434000C9434000C9434000C9434007C
S11300300C9434000C9434000C9434000C9434006C
S11300400C9434000C9434000C9434000C9434005C
S11300500C94340011241FBECFE5D4E0DEBFCDBF25
S11300600E9436000C9490000C9400008FEF8ABB21
S11300706BE65CE04CE438EE2AE49AE18BEE1BBAC2
S11300807FE7EAE1F6E07150E040F040E1F700C0BC
S113009000006BBB7FE7EAE1F6E07150E040F0401E
S11300A0E1F700C000005BBB7FE7EAE1F6E07150D6
S11300B0E040F040E1F700C000004BBB7FE7EAE11D
S11300C0F6E07150E040F040E1F700C000003BBBB7
S11300D07FE7EAE1F6E07150E040F040E1F700C06C
S11300E000002BBB7FE7EAE1F6E07150E040F0400E
S11300F0E1F700C000009BBB7FE7EAE1F6E0715046
S1130100E040F040E1F700C000008BBB7FE7EAE18C
S1130110F6E07150E040F040E1F700C00000AFCFDE
S1070120F894FFCF7D
S9030000FC
