:100000000C942A000C943F000C943F000C943F0089
:100010000C943F000C943F000C943F000C943F0064
:100020000C943F000C943F000C943F000C943F0054
:100030000C943F000C943F000C943F000C943F0044
:100040000C943F000C943F000C943F000C943F0034
:100050000C943F0011241FBECFE5D4E0DEBFCDBF1E
:1000600010E0A0E6B0E0E0E4F1E002C005900D92FF
:10007000A83AB107D9F70E9460000C949E000C9436
:10008000000089B990BD80B5866880BD88E98AB9CD
:1000900008955F9BFECF8CB108955D9BFECF8CB918
:1000A0000895CF93DF93EC018881882331F0219666
:1000B0000E944D0089918111FBCFDF91CF9108956E
:1000C0008FEF87BB81BB83ED90E30197F1F700C011
:1000D000000083E390E00E944100FF24F39408E0D5
:1000E00010EFDFEF0E944900C82FCF7DC63431F4F6
:1000F00080E690E00E945100D8BB08C0C23431F4C1
:1001000080E790E00E94510018BB08C0CC3431F465
:1001100081E890E00E94510008BB08C0C23531F46C
:100120008EE890E00E945100F8BADCCFC335D1F6DA
:100130008CE990E00E94510018BAD4CFF894FFCF18
:100140000A204D6F766520466F72776172642000D9
:100150000A204D6F7665204261636B77617264207F
:10016000000A205475726E204C65667420000A20C7
:100170005475726E20526967687420000A205354C7
:080180004F5021212020000056
:00000001FF
