:100000000C942A000C9449000C9447000C9447006F
:100010000C9447000C9447000C9447000C94470044
:100020000C9447000C9447000C9447000C94470034
:100030000C9447000C9447000C9447000C94470024
:100040000C9447000C9447000C9447000C94470014
:100050000C94470011241FBECFE5D4E0DEBFCDBF16
:1000600010E0A0E6B0E0E6EFF2E002C005900D92ED
:10007000A038B107D9F720E0A0E8B0E001C01D9298
:10008000A438B207E1F70E94C2000C9479010C94E5
:1000900000001F920F920FB60F9211248F939F931F
:1000A0008091800090918100019769F41EBC8CB50D
:1000B0009DB590938300809382001DBC1CBC109260
:1000C0008100109280008091800090918100892BA6
:1000D00049F48EB581608EBD81E090E090938100FF
:1000E000809380009F918F910F900FBE0F901F9073
:1000F0001895982F907F98BBC098C198C29AE9EF45
:10010000F0E03197F1F700C00000C298F0E18F9F56
:10011000C001112488BBC098C198C29A89EF90E0B1
:100120000197F1F700C00000C2980895982F907FC2
:1001300098BBC09AC198C29AE9EFF0E03197F1F705
:1001400000C00000C298F0E18F9FC001112488BB5D
:10015000C09AC198C29A89EF90E00197F1F700C068
:100160000000C2980895CF93DF93EC018881882323
:1001700031F021960E94960089918111FBCFDF9189
:10018000CF910895CF93DF93CDB7DEB760970FB6C9
:10019000F894DEBF0FBECDBF8FEF87BB8BEF81BB67
:1001A00083ED90E30197F1F700C000008BB7806406
:1001B0008BBF85B7816085BF82E00E94790088E2AD
:1001C0000E9479008CE00E94790086E00E9479000C
:1001D00078940F2EFAE3EF2EF12CF02D909A95E003
:1001E0009A95F1F7909885E08A95F1F70091820051
:1001F0001091830080E80E94790080E690E00E94E0
:10020000B30080EC0E9479008FE690E00E94B3007A
:10021000C801B7010E941C01CB014AE0BE016F5F1B
:100220007F4F0E944401CE0101960E94B30089E7EE
:1002300090E00E94B300D2CF97FB072E16F40094F3
:1002400007D077FD09D00E94300107FC05D03EF4AD
:10025000909581959F4F0895709561957F4F089572
:10026000AA1BBB1B51E107C0AA1FBB1FA617B707DC
:1002700010F0A61BB70B881F991F5A95A9F78095F8
:100280009095BC01CD010895BB274A3031F49923E4
:1002900022F4BDE2909581959F4F0C945001BB27AD
:1002A000FB015527AA27880F991FAA1FA41710F032
:1002B000A41B83955051B9F7A05DAA3308F0A95D3E
:1002C000A193009779F7B111B1931192CB010C94DE
:1002D0006901DC01FC01672F71917723E1F7329707
:1002E00004C07C916D9370836291AE17BF07C8F311
:0602F0000895F894FFCF11
:1002F6005265766976696E6720496E646961004465
:10030600495354414E43453D00636D202020200053
:00000001FF
