:100000000C942A000C943F000C943F000C943F0089
:100010000C943F000C943F000C943F000C943F0064
:100020000C943F000C943F000C943F000C943F0054
:100030000C943F000C943F000C943F000C943F0044
:100040000C943F000C943F000C943F000C943F0034
:100050000C943F0011241FBECFE5D4E0DEBFCDBF1E
:1000600010E0A0E6B0E0ECE6F2E002C005900D92F0
:10007000AA36B107D9F70E94E0000C9434010C9421
:1000800000003E9A87EA86B9089527B187709927BC
:10009000822B87B9369A349BFECF349A84B195B1BE
:1000A0000895982F907F98BBC098C198C29AE9EFA5
:1000B000F0E03197F1F700C00000C298F0E18F9FA7
:1000C000C001112488BBC098C198C29A89EF90E002
:1000D0000197F1F700C00000C298089582E00E94E5
:1000E000510088E20E9451008EE00E94510086E09B
:1000F0000E9451000895982F907F98BBC09AC19894
:10010000C29AE9EFF0E03197F1F700C00000C29821
:10011000F0E18F9FC001112488BBC09AC198C29A98
:1001200089EF90E00197F1F700C00000C2980895B0
:10013000CF93DF93EC018881882331F021960E94D0
:100140007B0089918111FBCFDF91CF910895CF93EF
:10015000DF93EC0184E00E945100209759F19E0149
:10016000ADECBCEC0E9425019695879596958795F8
:10017000969587959C01220F331F880F991F880F32
:10018000991F880F991F820F931F9E01281B390BFF
:10019000C901805D0E947B009E01ADECBCEC0E9419
:1001A0002501EC01D695C795D695C795D695C795E7
:1001B0002097A9F686E00E945100DF91CF91089523
:1001C0001ABA8FEF87BB87BB0E946E000E94410066
:1001D00080E090E00E944500EC0180E80E94510020
:1001E00080E690E00E94980084E80E945100CE01D1
:1001F0000E94A70081E090E00E944500EC0186E8A3
:100200000E94510083E690E00E9498008AE80E94D4
:100210005100CE010E94A70082E090E00E944500BC
:10022000EC0180EC0E94510086E690E00E9498006C
:1002300084EC0E945100CE010E94A70087EA91E65B
:100240000197F1F700C00000C3CFA29FB001B39F98
:10025000C001A39F700D811D1124911DB29F700DCF
:0C026000811D1124911D0895F894FFCF1A
:0A026C00783D00793D007A3D000066
:00000001FF
